H0000010064116073865รับชำระเงินค่าลงทะเบียนนักศึกษาระดับปริญ1506202280872                                                                                                                                                                                       
D000002006411607386515062022103702MR.Suvit Innupat                                  25650615101739      0006445030821                           00000000CNET00000000000000800000000                                                                   0000000000
D000003006411607386515062022105349นายกฤตย์ จันทะแจ่ม                                25650615101442      0006545030501                           10190795CCSH00000000000000515000000                                                                   0000000000
D000004006411607386515062022105445น.ส.หนึ่งฤดี อิ่มกรุง                             25650615101742      0006545030811                           00000000CNET00000000000000515000000                                                                0300000000000
D000005006411607386515062022140241นาย อดิศักดิ์ บุตรดี                              25650615100404      0006545030516                           08610182CCSH00000000000000895000000                                                                   0000000000
D000006006411607386515062022150348นายชัยสิทธิ์ เทียมสิงห์                           25650615100483      0006445030503                           03111769CCSH00000000000000800000000                                                                   0000000000
D000007006411607386515062022151633MR.Warit Phokaeo                                  25650615101784      0006445030816                           00000000CNET00000000000000800000000                                                                   0000000000
D000008006411607386515062022162206นาย ชนาพัทธ์ พรมฬี                                25650615101796      0006545030602                           00000000CNET00000000000000960000000                                                                0340000000000
D000009006411607386515062022172500MISS PHAWADEE THONGSUK                            25650615101845      0006445030409                           00000000CNET00000000000000500000000                                                                   0000000000
D000010006411607386515062022180031นาย ศราวุธ สุขแจ้ง                                25650615100644      0006445030514                           08610182CCSH00000000000000500000000                                                                   0000000000
D000011006411607386515062022180055MISSBaihyok Saenla                                25650615101863      0006445030405                           00000000CNET00000000000000500000000                                                                   0000000000
D000012006411607386515062022180846นาย กรภัทร ใยไธสง                                 25650615101881      0006445030407                           00000000CNET00000000000000500000000                                                                0040000000000
D000013006411607386515062022184837นาย จิรภัทร สุทธะมาตร                             25650615101760      0006545030402                           00000000CNET00000000000000515000000                                                                0040000000000
D000014006411607386515062022185552Suriya Denduang                                   25650615101715      0006545030617                           00000000CNET00000000000000515000000                                                                   0000000000
D000015006411607386515062022190813นาย สันติศักดิ์  แหวนวงษ์                         25650615100669      0006545030517                           12871299CCSH00000000000000515000000                                                                   0000000000
D000016006411607386515062022203823MISSBenjawan Khukanthin                           25650615100829      0006445030508                           00000000CNET00000000000000800000000                                                                   0000000000
D000017006411607386515062022213723นาย บริพัตร เจิมขุนทด                             25650615101175      0006445030812                           00000000CNET00000000000000800000000                                                                0140000000000
T000018006411607386500000000000000000000000010430000000016                                                                                                                                                                                                      
