H0000010064116073865รับชำระเงินค่าลงทะเบียนนักศึกษาระดับปริญ1108202280872                                                                                                                                                                                       
D000002006411607386511082022142856Suriya Denduang                                   25650825101728      0006545030617                           00000000CNET00000000000000445000000                                                                   0000000000
T000003006411607386500000000000000000000000000445000000001                                                                                                                                                                                                      
