H0000010067036016329วิทยาลัยเทคนิคเพชรบุรี                  2705202281134                                                                                                                                                                                       
D000002006703601632927052022082316น.ส.กัญญพร แก้วประเสริฐ                           25650527501194      0063201060020                           07031703CNET00000000000000119000000                                                                   0000000000
D000003006703601632927052022093643ด.ช. ปรวัตร เปลี่ยนสมบัติ                         25650527501603      0064201040055                           00000000CNET00000000000000119000000                                                                0040000000000
D000004006703601632927052022100106นาย จีรภัทร ดำสอาด                                25650527501612      0063201040014                           00000000CNET00000000000000119000000                                                                0140000000000
D000005006703601632927052022103408นาย อนุวัฒน์ ประสงค์เงิน                          25650527501367      0064201050036                           00000000CNET00000000000000119000000                                                                0040000000000
D000006006703601632927052022103645นาง ศศิธร เนียมเงิน                               25650527500878      0064301040006                           00000000CNET00000000000000654000000                                                                0040000000000
D000007006703601632927052022113049Wasana Nimlaong                                   25650527501649      0064201010073                           00000000CNET00000000000000119000000                                                                   0000000000
D000008006703601632927052022151645MR.Aekkalak Thongchin                             25650527501694      0064201020062                           00000000CNET00000000000000119000000                                                                   0000000000
D000009006703601632927052022152717KAEWTHIP POUNGTHIP                                25650527501685      0063201040041                           00000000CNET00000000000000119000000                                                                   0000000000
D000010006703601632927052022153644นาง ราตรี พัดสายทอง                               25650527800017      0064301040045                           00000000CNET00000000000000100000000                                                                0250000000000
D000011006703601632927052022165659นาย อนุวัฒร์ ชาตวัน                               25650527500484      0063201010088                           00000000CNET00000000000000119000000                                                                0300000000000
D000012006703601632927052022170845น.ส. รัชนี อ่วมแสง                                25650527501621      0063201040106                           00000000CNET00000000000000119000000                                                                0040000000000
D000013006703601632927052022172334น.ส. ทัศนีย์ คชพงษ์                               25650527501512      0063201060056                           00000000CNET00000000000000119000000                                                                0040000000000
D000014006703601632927052022172757MR.Wasan Intrajuk                                 25650527500902      0063201110001                           00000000CNET00000000000000119000000                                                                   0000000000
D000015006703601632927052022172924นาย รัฐภูมิ เทพนม                                 25650527501076      1769300028750                           00000000CNET00000000000000119000000                                                                0300000000000
D000016006703601632927052022175149นาย สรรเสริญ เผ่าจินดา                            25650527501485      0063201050010                           00000000CNET00000000000000119000000                                                                0040000000000
D000017006703601632927052022200318นาย วชิรวิทย์ สิงห์ทอง                            25650527501630      0063201060045                           00000000CNET00000000000000119000000                                                                0040000000000
D000018006703601632927052022200702น.ส.ดวงณัชปภาศรี มณีทิพย์                         25650527501703      0063201010110                           00000000CNET00000000000000119000000                                                                0340000000000
D000019006703601632927052022201145นาย วิโรจน์ พลีไพร                                25650527500120      0064301060027                           00000000CNET00000000000000234000000                                                                0040000000000
D000020006703601632927052022204123นางสาว ดวงพร สังข์ทอง                             25650527501658      0064201040053                           00000000CNET00000000000000119000000                                                                0300000000000
D000021006703601632927052022210010นาง กัญนิภา โบสถ์แก้ว                             25650527501712      0064201010051                           00000000CNET00000000000000119000000                                                                0300000000000
D000022006703601632927052022221931น.ส. ธิดารัตน์ มาหนูพันธ์                         25650527501721      0064201020033                           00000000CNET00000000000000119000000                                                                0040000000000
D000023006703601632927052022225700MISSSophita Seesawai                              25650527501735      0064301010048                           00000000CNET00000000000000164000000                                                                   0000000000
T000024006703601632900000000000000000000000003294000000022                                                                                                                                                                                                      
