H0000010064116073865รับชำระเงินค่าลงทะเบียนนักศึกษาระดับปริญ2906202280872                                                                                                                                                                                       
D000002006411607386529062022091509MR.Tanakon Munsan                                 25650630101708      0006545030606                           00000000CNET00000000000000960000000                                                                   0000000000
D000003006411607386529062022131031นาย อนิรุจน์ หล้าธรรม                             25650630100538      0006445030511                           03119314CCSH00000000000000500000000                                                                   0000000000
D000004006411607386529062022151642นาย ฑีรทัศน์ เฒ่ากระโทก                           25650630100398      0006545030506                           00000000CNET00000000000000895000000                                                                0140000000000
T000005006411607386500000000000000000000000002355000000003                                                                                                                                                                                                      
