H0000010064116073865รับชำระเงินค่าลงทะเบียนนักศึกษาระดับปริญ1206202280872                                                                                                                                                                                       
D000002006411607386512062022132445น.ส. สหัสวดี  เท่าสาร                             25650615100268      0006545030614                           12190990CCSH00000000000000960000000                                                                   0000000000
D000003006411607386512062022171013นายสหรัถ จันทะเนา                                 25650615100886      0006545030821                           10750751CCSH00000000000000960000000                                                                   0000000000
D000004006411607386512062022174000MR.Kornprom Yothika                               25650615101260      0006545030822                           00000000CNET00000000000000515000000                                                                   0000000000
D000005006411607386512062022180418นายขวัญชัย  จันทะเกิด                             25650615101350      0006545030403                           07740591CCSH00000000000000960000000                                                                   0000000000
D000006006411607386512062022181828นายทินกร  กองไธสง                                 25650615101369      0006545030410                           07740591CCSH00000000000000960000000                                                                   0000000000
T000007006411607386500000000000000000000000004355000000005                                                                                                                                                                                                      
