H0000010064116073865รับชำระเงินค่าลงทะเบียนนักศึกษาระดับปริญ0608202280872                                                                                                                                                                                       
D000002006411607386506082022121816MR.Tee-rapon Munchai                              25650825100254      0006545030605                           00000000CNET00000000000000445000000                                                                   0000000000
T000003006411607386500000000000000000000000000445000000001                                                                                                                                                                                                      
