H0000010067036016329วิทยาลัยเทคนิคเพชรบุรี                  0806202281134                                                                                                                                                                                       
D000002006703601632908062022064249นาย ภูมินทร์ เดชมา                                25650610600128      0063201040064                           00000000CNET00000000000000015000000                                                                0040000000000
D000003006703601632908062022114923น.ส. ชรินรัตน์ นวมงาม                             25650610600291      0063201060009                           00000000CNET00000000000000015000000                                                                0040000000000
D000004006703601632908062022133532นาย ภโวทัย ขลิบทอง                                25650610600300      0064201270004                           00000000CNET00000000000000015000000                                                                0300000000000
D000005006703601632908062022143740นายนรบดินทร์ สายนาค                               25650610600323      0006121020031                           14172415CCSH00000000000000060000000                                                                   0000000000
D000006006703601632908062022144611น.ส. สุภมาส เอราวัล                               25650610600337      0063201020064                           00000000CNET00000000000000015000000                                                                0040000000000
D000007006703601632908062022145443MR.Anawat Khamkaeo                                25650610600346      0063201040096                           00000000CNET00000000000000015000000                                                                   0000000000
D000008006703601632908062022162852Apichaya Baungsaung                               25650610600311      0063201060034                           00000000CNET00000000000000030000000                                                                   0000000000
D000009006703601632908062022172624นางสาว นฤมล สำราญรมย์                             25650610600182      0064201010023                           00000000CNET00000000000000015000000                                                                0300000000000
T000010006703601632900000000000000000000000000180000000008                                                                                                                                                                                                      
