H0000010067036016329วิทยาลัยเทคนิคเพชรบุรี                  0906202281134                                                                                                                                                                                       
D000002006703601632909062022091708นาย ยอดชาย ร่าเริง                                25650610600039      0062201010035                           00000000CNET00000000000000030000000                                                                0300000000000
D000003006703601632909062022095146นาย ชูตระกูล ป้านสุวรรณ                           25650610600382      0063201280006                           00000000CNET00000000000000015000000                                                                0040000000000
D000004006703601632909062022115347นาย ปัณณธร วรกลั่น                                25650610600400      0064201010069                           00000000CNET00000000000000015000000                                                                0300000000000
D000005006703601632909062022120720PHACHARAPHON SORNBOON                             25650610600446      0064201010075                           00000000CNET00000000000000015000000                                                                   0000000000
D000006006703601632909062022140508นาย ธนเดช บัววิเชียร                              25650610600367      0062201060014                           00000000CNET00000000000000045000000                                                                0140000000000
D000007006703601632909062022144347MR.Natthapon Janman                               25650610600264      0063301040008                           00000000CNET00000000000000015000000                                                                   0000000000
D000008006703601632909062022171025นางสาว สุกัญญา เอมจุ้ย                            25650610600437      0064201010074                           00000000CNET00000000000000015000000                                                                0300000000000
D000009006703601632909062022211852นาย สหรัฐ อยู่ฉิม                                 25650610600055      0062201040092                           00000000CNET00000000000000015000000                                                                0300000000000
T000010006703601632900000000000000000000000000165000000008                                                                                                                                                                                                      
